{
  "contractName": "AttendanceLedger",
  "abi": [
    {
      "inputs": [
        {
          "internalType": "uint256",
          "name": "",
          "type": "uint256"
        }
      ],
      "name": "studentIds",
      "outputs": [
        {
          "internalType": "string",
          "name": "",
          "type": "string"
        }
      ],
      "stateMutability": "view",
      "type": "function",
      "constant": true
    },
    {
      "inputs": [
        {
          "internalType": "string",
          "name": "",
          "type": "string"
        }
      ],
      "name": "students",
      "outputs": [
        {
          "internalType": "string",
          "name": "studentId",
          "type": "string"
        },
        {
          "internalType": "string",
          "name": "firstName",
          "type": "string"
        },
        {
          "internalType": "string",
          "name": "lastName",
          "type": "string"
        },
        {
          "internalType": "string",
          "name": "email",
          "type": "string"
        },
        {
          "internalType": "string",
          "name": "department",
          "type": "string"
        },
        {
          "internalType": "uint256",
          "name": "year",
          "type": "uint256"
        },
        {
          "internalType": "string",
          "name": "section",
          "type": "string"
        },
        {
          "internalType": "string",
          "name": "password",
          "type": "string"
        },
        {
          "internalType": "bool",
          "name": "isActive",
          "type": "bool"
        }
      ],
      "stateMutability": "view",
      "type": "function",
      "constant": true
    },
    {
      "inputs": [
        {
          "internalType": "string",
          "name": "studentId",
          "type": "string"
        },
        {
          "internalType": "string",
          "name": "firstName",
          "type": "string"
        },
        {
          "internalType": "string",
          "name": "lastName",
          "type": "string"
        },
        {
          "internalType": "string",
          "name": "email",
          "type": "string"
        },
        {
          "internalType": "string",
          "name": "department",
          "type": "string"
        },
        {
          "internalType": "uint256",
          "name": "year",
          "type": "uint256"
        },
        {
          "internalType": "string",
          "name": "section",
          "type": "string"
        },
        {
          "internalType": "string",
          "name": "password",
          "type": "string"
        }
      ],
      "name": "registerStudent",
      "outputs": [],
      "stateMutability": "nonpayable",
      "type": "function"
    },
    {
      "inputs": [
        {
          "internalType": "string",
          "name": "studentId",
          "type": "string"
        }
      ],
      "name": "getStudent",
      "outputs": [
        {
          "components": [
            {
              "internalType": "string",
              "name": "studentId",
              "type": "string"
            },
            {
              "internalType": "string",
              "name": "firstName",
              "type": "string"
            },
            {
              "internalType": "string",
              "name": "lastName",
              "type": "string"
            },
            {
              "internalType": "string",
              "name": "email",
              "type": "string"
            },
            {
              "internalType": "string",
              "name": "department",
              "type": "string"
            },
            {
              "internalType": "uint256",
              "name": "year",
              "type": "uint256"
            },
            {
              "internalType": "string",
              "name": "section",
              "type": "string"
            },
            {
              "internalType": "string",
              "name": "password",
              "type": "string"
            },
            {
              "internalType": "bool",
              "name": "isActive",
              "type": "bool"
            }
          ],
          "internalType": "struct AttendanceLedger.Student",
          "name": "",
          "type": "tuple"
        }
      ],
      "stateMutability": "view",
      "type": "function",
      "constant": true
    },
    {
      "inputs": [],
      "name": "getStudentIds",
      "outputs": [
        {
          "internalType": "string[]",
          "name": "",
          "type": "string[]"
        }
      ],
      "stateMutability": "view",
      "type": "function",
      "constant": true
    },
    {
      "inputs": [
        {
          "internalType": "string",
          "name": "studentId",
          "type": "string"
        },
        {
          "internalType": "string",
          "name": "password",
          "type": "string"
        }
      ],
      "name": "loginStudent",
      "outputs": [
        {
          "internalType": "bool",
          "name": "",
          "type": "bool"
        }
      ],
      "stateMutability": "view",
      "type": "function",
      "constant": true
    }
  ],
  "bytecode": "0x608060405234801561001057600080fd5b50611a7d806100206000396000f3fe608060405234801561001057600080fd5b50600436106100625760003560e01c8063644915b2146100675780636f28c35514610085578063890cfd3d146100b5578063a21f15ca146100e5578063c7ef6bfb14610101578063d029661214610139575b600080fd5b61006f610169565b60405161007c9190610f69565b60405180910390f35b61009f600480360381019061009a9190610fd5565b610242565b6040516100ac919061104c565b60405180910390f35b6100cf60048036038101906100ca91906111a3565b6102ee565b6040516100dc9190611236565b60405180910390f35b6100ff60048036038101906100fa9190611251565b610367565b005b61011b600480360381019061011691906113cb565b610544565b60405161013099989796959493929190611423565b60405180910390f35b610153600480360381019061014e91906113cb565b61096d565b60405161016091906115ee565b60405180910390f35b60606001805480602002602001604051908101604052809291908181526020016000905b828210156102395783829060005260206000200180546101ac9061163f565b80601f01602080910402602001604051908101604052809291908181526020018280546101d89061163f565b80156102255780601f106101fa57610100808354040283529160200191610225565b820191906000526020600020905b81548152906001019060200180831161020857829003601f168201915b50505050508152602001906001019061018d565b50505050905090565b6001818154811061025257600080fd5b90600052602060002001600091509050805461026d9061163f565b80601f01602080910402602001604051908101604052809291908181526020018280546102999061163f565b80156102e65780601f106102bb576101008083540402835291602001916102e6565b820191906000526020600020905b8154815290600101906020018083116102c957829003601f168201915b505050505081565b60008160405160200161030191906116ac565b6040516020818303038152906040528051906020012060008460405161032791906116ac565b9081526020016040518091039020600701604051602001610348919061175b565b6040516020818303038152906040528051906020012014905092915050565b6000151560008960405161037b91906116ac565b908152602001604051809103902060080160009054906101000a900460ff161515146103dc576040517f08c379a00000000000000000000000000000000000000000000000000000000081526004016103d3906117be565b60405180910390fd5b6001889080600181540180825580915050600190039060005260206000200160009091909190915090816104109190611975565b506040518061012001604052808981526020018881526020018781526020018681526020018581526020018481526020018381526020018281526020016001151581525060008960405161046491906116ac565b908152602001604051809103902060008201518160000190816104879190611975565b50602082015181600101908161049d9190611975565b5060408201518160020190816104b39190611975565b5060608201518160030190816104c99190611975565b5060808201518160040190816104df9190611975565b5060a0820151816005015560c08201518160060190816104ff9190611975565b5060e08201518160070190816105159190611975565b506101008201518160080160006101000a81548160ff0219169083151502179055509050505050505050505050565b60008180516020810182018051848252602083016020850120818352809550505050505060009150905080600001805461057d9061163f565b80601f01602080910402602001604051908101604052809291908181526020018280546105a99061163f565b80156105f65780601f106105cb576101008083540402835291602001916105f6565b820191906000526020600020905b8154815290600101906020018083116105d957829003601f168201915b50505050509080600101805461060b9061163f565b80601f01602080910402602001604051908101604052809291908181526020018280546106379061163f565b80156106845780601f1061065957610100808354040283529160200191610684565b820191906000526020600020905b81548152906001019060200180831161066757829003601f168201915b5050505050908060020180546106999061163f565b80601f01602080910402602001604051908101604052809291908181526020018280546106c59061163f565b80156107125780601f106106e757610100808354040283529160200191610712565b820191906000526020600020905b8154815290600101906020018083116106f557829003601f168201915b5050505050908060030180546107279061163f565b80601f01602080910402602001604051908101604052809291908181526020018280546107539061163f565b80156107a05780601f10610775576101008083540402835291602001916107a0565b820191906000526020600020905b81548152906001019060200180831161078357829003601f168201915b5050505050908060040180546107b59061163f565b80601f01602080910402602001604051908101604052809291908181526020018280546107e19061163f565b801561082e5780601f106108035761010080835404028352916020019161082e565b820191906000526020600020905b81548152906001019060200180831161081157829003601f168201915b5050505050908060050154908060060180546108499061163f565b80601f01602080910402602001604051908101604052809291908181526020018280546108759061163f565b80156108c25780601f10610897576101008083540402835291602001916108c2565b820191906000526020600020905b8154815290600101906020018083116108a557829003601f168201915b5050505050908060070180546108d79061163f565b80601f01602080910402602001604051908101604052809291908181526020018280546109039061163f565b80156109505780601f1061092557610100808354040283529160200191610950565b820191906000526020600020905b81548152906001019060200180831161093357829003601f168201915b5050505050908060080160009054906101000a900460ff16905089565b610975610dc9565b60008260405161098591906116ac565b9081526020016040518091039020604051806101200160405290816000820180546109af9061163f565b80601f01602080910402602001604051908101604052809291908181526020018280546109db9061163f565b8015610a285780601f106109fd57610100808354040283529160200191610a28565b820191906000526020600020905b815481529060010190602001808311610a0b57829003601f168201915b50505050508152602001600182018054610a419061163f565b80601f0160208091040260200160405190810160405280929190818152602001828054610a6d9061163f565b8015610aba5780601f10610a8f57610100808354040283529160200191610aba565b820191906000526020600020905b815481529060010190602001808311610a9d57829003601f168201915b50505050508152602001600282018054610ad39061163f565b80601f0160208091040260200160405190810160405280929190818152602001828054610aff9061163f565b8015610b4c5780601f10610b2157610100808354040283529160200191610b4c565b820191906000526020600020905b815481529060010190602001808311610b2f57829003601f168201915b50505050508152602001600382018054610b659061163f565b80601f0160208091040260200160405190810160405280929190818152602001828054610b919061163f565b8015610bde5780601f10610bb357610100808354040283529160200191610bde565b820191906000526020600020905b815481529060010190602001808311610bc157829003601f168201915b50505050508152602001600482018054610bf79061163f565b80601f0160208091040260200160405190810160405280929190818152602001828054610c239061163f565b8015610c705780601f10610c4557610100808354040283529160200191610c70565b820191906000526020600020905b815481529060010190602001808311610c5357829003601f168201915b5050505050815260200160058201548152602001600682018054610c939061163f565b80601f0160208091040260200160405190810160405280929190818152602001828054610cbf9061163f565b8015610d0c5780601f10610ce157610100808354040283529160200191610d0c565b820191906000526020600020905b815481529060010190602001808311610cef57829003601f168201915b50505050508152602001600782018054610d259061163f565b80601f0160208091040260200160405190810160405280929190818152602001828054610d519061163f565b8015610d9e5780601f10610d7357610100808354040283529160200191610d9e565b820191906000526020600020905b815481529060010190602001808311610d8157829003601f168201915b505050505081526020016008820160009054906101000a900460ff1615151515815250509050919050565b60405180610120016040528060608152602001606081526020016060815260200160608152602001606081526020016000815260200160608152602001606081526020016000151581525090565b600081519050919050565b600082825260208201905092915050565b6000819050602082019050919050565b600081519050919050565b600082825260208201905092915050565b60005b83811015610e7d578082015181840152602081019050610e62565b60008484015250505050565b6000601f19601f8301169050919050565b6000610ea582610e43565b610eaf8185610e4e565b9350610ebf818560208601610e5f565b610ec881610e89565b840191505092915050565b6000610edf8383610e9a565b905092915050565b6000602082019050919050565b6000610eff82610e17565b610f098185610e22565b935083602082028501610f1b85610e33565b8060005b85811015610f575784840389528151610f388582610ed3565b9450610f4383610ee7565b925060208a01995050600181019050610f1f565b50829750879550505050505092915050565b60006020820190508181036000830152610f838184610ef4565b905092915050565b6000604051905090565b600080fd5b600080fd5b6000819050919050565b610fb281610f9f565b8114610fbd57600080fd5b50565b600081359050610fcf81610fa9565b92915050565b600060208284031215610feb57610fea610f95565b5b6000610ff984828501610fc0565b91505092915050565b600082825260208201905092915050565b600061101e82610e43565b6110288185611002565b9350611038818560208601610e5f565b61104181610e89565b840191505092915050565b600060208201905081810360008301526110668184611013565b905092915050565b600080fd5b600080fd5b7f4e487b7100000000000000000000000000000000000000000000000000000000600052604160045260246000fd5b6110b082610e89565b810181811067ffffffffffffffff821117156110cf576110ce611078565b5b80604052505050565b60006110e2610f8b565b90506110ee82826110a7565b919050565b600067ffffffffffffffff82111561110e5761110d611078565b5b61111782610e89565b9050602081019050919050565b82818337600083830152505050565b6000611146611141846110f3565b6110d8565b90508281526020810184848401111561116257611161611073565b5b61116d848285611124565b509392505050565b600082601f83011261118a5761118961106e565b5b813561119a848260208601611133565b91505092915050565b600080604083850312156111ba576111b9610f95565b5b600083013567ffffffffffffffff8111156111d8576111d7610f9a565b5b6111e485828601611175565b925050602083013567ffffffffffffffff81111561120557611204610f9a565b5b61121185828601611175565b9150509250929050565b60008115159050919050565b6112308161121b565b82525050565b600060208201905061124b6000830184611227565b92915050565b600080600080600080600080610100898b03121561127257611271610f95565b5b600089013567ffffffffffffffff8111156112905761128f610f9a565b5b61129c8b828c01611175565b985050602089013567ffffffffffffffff8111156112bd576112bc610f9a565b5b6112c98b828c01611175565b975050604089013567ffffffffffffffff8111156112ea576112e9610f9a565b5b6112f68b828c01611175565b965050606089013567ffffffffffffffff81111561131757611316610f9a565b5b6113238b828c01611175565b955050608089013567ffffffffffffffff81111561134457611343610f9a565b5b6113508b828c01611175565b94505060a06113618b828c01610fc0565b93505060c089013567ffffffffffffffff81111561138257611381610f9a565b5b61138e8b828c01611175565b92505060e089013567ffffffffffffffff8111156113af576113ae610f9a565b5b6113bb8b828c01611175565b9150509295985092959890939650565b6000602082840312156113e1576113e0610f95565b5b600082013567ffffffffffffffff8111156113ff576113fe610f9a565b5b61140b84828501611175565b91505092915050565b61141d81610f9f565b82525050565b600061012082019050818103600083015261143e818c611013565b90508181036020830152611452818b611013565b90508181036040830152611466818a611013565b9050818103606083015261147a8189611013565b9050818103608083015261148e8188611013565b905061149d60a0830187611414565b81810360c08301526114af8186611013565b905081810360e08301526114c38185611013565b90506114d3610100830184611227565b9a9950505050505050505050565b6114ea81610f9f565b82525050565b6114f98161121b565b82525050565b600061012083016000830151848203600086015261151d8282610e9a565b915050602083015184820360208601526115378282610e9a565b915050604083015184820360408601526115518282610e9a565b9150506060830151848203606086015261156b8282610e9a565b915050608083015184820360808601526115858282610e9a565b91505060a083015161159a60a08601826114e1565b5060c083015184820360c08601526115b28282610e9a565b91505060e083015184820360e08601526115cc8282610e9a565b9150506101008301516115e36101008601826114f0565b508091505092915050565b6000602082019050818103600083015261160881846114ff565b905092915050565b7f4e487b7100000000000000000000000000000000000000000000000000000000600052602260045260246000fd5b6000600282049050600182168061165757607f821691505b60208210810361166a57611669611610565b5b50919050565b600081905092915050565b600061168682610e43565b6116908185611670565b93506116a0818560208601610e5f565b80840191505092915050565b60006116b8828461167b565b915081905092915050565b60008190508160005260206000209050919050565b600081546116e58161163f565b6116ef8186611670565b9450600182166000811461170a576001811461171f57611752565b60ff1983168652811515820286019350611752565b611728856116c3565b60005b8381101561174a5781548189015260018201915060208101905061172b565b838801955050505b50505092915050565b600061176782846116d8565b915081905092915050565b7f53747564656e7420616c72656164792072656769737465726564000000000000600082015250565b60006117a8601a83611002565b91506117b382611772565b602082019050919050565b600060208201905081810360008301526117d78161179b565b9050919050565b60006020601f8301049050919050565b600082821b905092915050565b60006008830261182b7fffffffffffffffffffffffffffffffffffffffffffffffffffffffffffffffff826117ee565b61183586836117ee565b95508019841693508086168417925050509392505050565b6000819050919050565b600061187261186d61186884610f9f565b61184d565b610f9f565b9050919050565b6000819050919050565b61188c83611857565b6118a061189882611879565b8484546117fb565b825550505050565b600090565b6118b56118a8565b6118c0818484611883565b505050565b5b818110156118e4576118d96000826118ad565b6001810190506118c6565b5050565b601f821115611929576118fa816116c3565b611903846117de565b81016020851015611912578190505b61192661191e856117de565b8301826118c5565b50505b505050565b600082821c905092915050565b600061194c6000198460080261192e565b1980831691505092915050565b6000611965838361193b565b9150826002028217905092915050565b61197e82610e43565b67ffffffffffffffff81111561199757611996611078565b5b6119a1825461163f565b6119ac8282856118e8565b600060209050601f8311600181146119df57600084156119cd578287015190505b6119d78582611959565b865550611a3f565b601f1984166119ed866116c3565b60005b82811015611a15578489015182556001820191506020850194506020810190506119f0565b86831015611a325784890151611a2e601f89168261193b565b8355505b6001600288020188555050505b50505050505056fea264697066735822122039d2ae32f94afd9c0c9ddd83b03d1630642b365e7c1fdd6219c76bfff275647464736f6c63430008130033",
  "immutableReferences": {},
  "source": "// SPDX-License-Identifier: MIT\r\npragma solidity >=0.4.22 <0.9.0;\r\n\r\ncontract AttendanceLedger {\r\n\r\n  struct Student {\r\n    string studentId;\r\n    string firstName;\r\n    string lastName;\r\n    string email;\r\n    string department;\r\n    uint year;\r\n    string section;\r\n    string password;\r\n    bool isActive;\r\n  }\r\n\r\n  mapping(string => Student) public students;\r\n  string[] public studentIds;\r\n\r\n  function registerStudent(string memory studentId, string memory firstName, string memory lastName, string memory email, string memory department, uint year, string memory section, string memory password) public {\r\n    require(students[studentId].isActive == false, \"Student already registered\");\r\n    studentIds.push(studentId);\r\n    students[studentId] = Student(studentId, firstName, lastName, email, department, year, section, password,true);\r\n  }\r\n\r\n  function getStudent(string memory studentId) public view returns (Student memory) {\r\n    return students[studentId];\r\n  }\r\n\r\n  function getStudentIds() public view returns (string[] memory) {\r\n    return studentIds;\r\n  }\r\n\r\n  function loginStudent(string memory studentId, string memory password) public view returns (bool) {\r\n    return keccak256(abi.encodePacked(students[studentId].password)) == keccak256(abi.encodePacked(password));\r\n  }\r\n}\r\n",
  "sourcePath": "C:\\Users\\jorig\\Desktop\\it-iv-year-project\\contracts\\AttendanceLedger.sol",
  "compiler": {
    "name": "solc",
    "version": "0.8.19+commit.7dd6d404.Emscripten.clang"
  },
  "schemaVersion": "3.4.16",
  "updatedAt": "2025-09-12T05:20:39.859Z",
  "networkType": "ethereum",
  "devdoc": {
    "kind": "dev",
    "methods": {},
    "version": 1
  },
  "userdoc": {
    "kind": "user",
    "methods": {},
    "version": 1
  }
}